{
    "_format": "hh-sol-artifact-1",
    "contractName": "Adoption",
    "sourceName": "contracts/Adoption.sol",
    "abi": [
        {
            "inputs": [
                {
                    "internalType": "uint256",
                    "name": "petId",
                    "type": "uint256"
                }
            ],
            "name": "adopt",
            "outputs": [
                {
                    "internalType": "uint256",
                    "name": "",
                    "type": "uint256"
                }
            ],
            "stateMutability": "nonpayable",
            "type": "function"
        },
        {
            "inputs": [
                {
                    "internalType": "uint256",
                    "name": "",
                    "type": "uint256"
                }
            ],
            "name": "adopters",
            "outputs": [
                {
                    "internalType": "address",
                    "name": "",
                    "type": "address"
                }
            ],
            "stateMutability": "view",
            "type": "function"
        },
        {
            "inputs": [
                {
                    "internalType": "uint256",
                    "name": "petId",
                    "type": "uint256"
                }
            ],
            "name": "getAdopter",
            "outputs": [
                {
                    "internalType": "address",
                    "name": "",
                    "type": "address"
                }
            ],
            "stateMutability": "view",
            "type": "function"
        },
        {
            "inputs": [],
            "name": "getAdopters",
            "outputs": [
                {
                    "internalType": "address[16]",
                    "name": "",
                    "type": "address[16]"
                }
            ],
            "stateMutability": "view",
            "type": "function"
        },
        {
            "inputs": [
                {
                    "internalType": "uint256",
                    "name": "petId",
                    "type": "uint256"
                },
                {
                    "internalType": "address",
                    "name": "newAdopter",
                    "type": "address"
                }
            ],
            "name": "transferAdoption",
            "outputs": [
                {
                    "internalType": "uint256",
                    "name": "",
                    "type": "uint256"
                }
            ],
            "stateMutability": "nonpayable",
            "type": "function"
        }
    ],
    "bytecode": "0x608060405234801561001057600080fd5b50610838806100206000396000f3fe608060405234801561001057600080fd5b50600436106100575760003560e01c80633de4eb171461005c57806343ae80d31461007a5780638588b2c5146100aa578063a7338297146100da578063d49094141461010a575b600080fd5b61006461013a565b6040516100719190610580565b60405180910390f35b610094600480360381019061008f91906105d7565b6101bb565b6040516100a19190610613565b60405180910390f35b6100c460048036038101906100bf91906105d7565b6101f1565b6040516100d1919061063d565b60405180910390f35b6100f460048036038101906100ef91906105d7565b61029f565b6040516101019190610613565b60405180910390f35b610124600480360381019061011f9190610684565b61032e565b604051610131919061063d565b60405180910390f35b610142610480565b60006010806020026040519081016040528092919082601080156101b1576020028201915b8160009054906101000a900473ffffffffffffffffffffffffffffffffffffffff1673ffffffffffffffffffffffffffffffffffffffff1681526020019060010190808311610167575b5050505050905090565b600081601081106101cb57600080fd5b016000915054906101000a900473ffffffffffffffffffffffffffffffffffffffff1681565b60008082101580156102045750600f8211155b610243576040517f08c379a000000000000000000000000000000000000000000000000000000000815260040161023a90610721565b60405180910390fd5b336000836010811061025857610257610741565b5b0160006101000a81548173ffffffffffffffffffffffffffffffffffffffff021916908373ffffffffffffffffffffffffffffffffffffffff160217905550819050919050565b60008082101580156102b25750600f8211155b6102f1576040517f08c379a00000000000000000000000000000000000000000000000000000000081526004016102e890610721565b60405180910390fd5b6000826010811061030557610304610741565b5b0160009054906101000a900473ffffffffffffffffffffffffffffffffffffffff169050919050565b60008083101580156103415750600f8311155b610380576040517f08c379a000000000000000000000000000000000000000000000000000000000815260040161037790610721565b60405180910390fd5b3373ffffffffffffffffffffffffffffffffffffffff16600084601081106103ab576103aa610741565b5b0160009054906101000a900473ffffffffffffffffffffffffffffffffffffffff1673ffffffffffffffffffffffffffffffffffffffff1614610423576040517f08c379a000000000000000000000000000000000000000000000000000000000815260040161041a906107e2565b60405180910390fd5b816000846010811061043857610437610741565b5b0160006101000a81548173ffffffffffffffffffffffffffffffffffffffff021916908373ffffffffffffffffffffffffffffffffffffffff16021790555082905092915050565b604051806102000160405280601090602082028036833780820191505090505090565b600060109050919050565b600081905092915050565b6000819050919050565b600073ffffffffffffffffffffffffffffffffffffffff82169050919050565b60006104ee826104c3565b9050919050565b6104fe816104e3565b82525050565b600061051083836104f5565b60208301905092915050565b6000602082019050919050565b610532816104a3565b61053c81846104ae565b9250610547826104b9565b8060005b8381101561057857815161055f8782610504565b965061056a8361051c565b92505060018101905061054b565b505050505050565b6000610200820190506105966000830184610529565b92915050565b600080fd5b6000819050919050565b6105b4816105a1565b81146105bf57600080fd5b50565b6000813590506105d1816105ab565b92915050565b6000602082840312156105ed576105ec61059c565b5b60006105fb848285016105c2565b91505092915050565b61060d816104e3565b82525050565b60006020820190506106286000830184610604565b92915050565b610637816105a1565b82525050565b6000602082019050610652600083018461062e565b92915050565b610661816104e3565b811461066c57600080fd5b50565b60008135905061067e81610658565b92915050565b6000806040838503121561069b5761069a61059c565b5b60006106a9858286016105c2565b92505060206106ba8582860161066f565b9150509250929050565b600082825260208201905092915050565b7f506574204944206d757374206265206265747765656e203020616e6420313500600082015250565b600061070b601f836106c4565b9150610716826106d5565b602082019050919050565b6000602082019050818103600083015261073a816106fe565b9050919050565b7f4e487b7100000000000000000000000000000000000000000000000000000000600052603260045260246000fd5b7f596f7520617265206e6f7420746865206f776e6572206f66207468697320706560008201527f7400000000000000000000000000000000000000000000000000000000000000602082015250565b60006107cc6021836106c4565b91506107d782610770565b604082019050919050565b600060208201905081810360008301526107fb816107bf565b905091905056fea2646970667358221220fa37b9c8601d124d7c28a1f99990be95b1bee1c6d3106047db35426aea389d0a64736f6c63430008130033",
    "linkReferences": {},
    "deployedLinkReferences": {}
}